:100000000C9474020C94C6020C94C6020C94C602A2
:100010000C94C6020C94C6020C94C6020C94C60240
:100020000C94C6020C94C6020C949A190C94691A8A
:100030000C9478140C94C6020C94C6020C94C6025C
:100040000C94C6020C94C6020C94C6020C94C60210
:100050000C94C6020C94E0140C94C6020C94C602D4
:100060000C94C6020C94291C0C94C6020C94C60273
:100070000C94C6020C94C6020C94C6020C94C602E0
:100080000C94C6020C94C6020C94C6020C94C602D0
:100090000C94C6020C94C6020C94C6020C94C602C0
:1000A0000C94C6020C94C6020C94C60236053805A0
:1000B00043053A053C053E05400542054505470513
:1000C000490554054B054D054F055105530556058A
:1000D0009D0B9D0BCF0BCF0B0D0C4F0D4F0D4F0DEF
:1000E0002B0C4F0DCE0CCE0C3F0D4F0D4F0D480D70
:1000F000DB0CDB0CDB0CDB0CDB0CDB0CDB0CDB0CC8
:10010000DB0CDB0CDB0CDB0CDB0CDB0CDB0CDB0CB7
:10011000EC0CFA0C010D080D120DDC0DDC0DEE0DD2
:10012000EE0DE50DEE0DEE0DEE0DDC0DDC0DEA0D28
:10013000EE0DEE0DEA0DD61AFD1AF51BFD1AF51B94
:10014000491B6C1BF51BC31BD21B29001E001F0083
:100150002000210022002300240025002600270083
:100160002D002E002A004C004A004D001A002B00E2
:1001700014000800150017001C0018000C001200E5
:1001800013002F00300031000F003300340028002E
:10019000E500390004001600070009000A000B0002
:1001A0000D000E00E1001D001B00060019000500F7
:1001B00011001000360037003800000052000154D2
:1001C0000000000000000000E000E300E2002C005E
:1001D000E600E400500051004F0035003A003B00BB
:1001E0003C003D003E003F00400041004200430013
:1001F000440045002A0001004B004E0001000100B0
:10020000010001000100010001000100240025009F
:10021000260001000100010023000100010001008F
:100220000100010001000100AA00A800A9000100CE
:100230002100220001000100010001000100010075
:10024000010027001E001F0020000000A800010080
:10025000000000000000000001000100010001009A
:1002600001000100AC00AE00AB0004033000000050
:10027000180341006C0070006100630061004200DF
:100280006F0061007200640000001A0353006800F0
:10029000650065007000790042006F006100720027
:1002A0006400730000000403090409025400030100
:1002B00000A0FA0904000001030101000921110155
:1002C00000012240000705810308000A090401001B
:1002D0000103000000092111010001223600070579
:1002E000820308000A09040200010300000009213A
:1002F00011010001223900070583032000011201CA
:10030000100100000008EDFEEFF191110102030160
:1003100005010906A101050719E029E715002501D6
:1003200095087501810205081901290595057501D2
:1003300091029501750391010507190029F7150030
:10034000250195F875018102C005010980A101858B
:10035000021601002603001A81002A8300751095F9
:10036000018100C0050C0901A101850316010026C9
:100370009C021A01002A9C02751095018100C0059B
:10038000010906A101050719E029E71500250195D6
:100390000875018102950175088101050819012977
:1003A00005950575019102950175039101050719E0
:1003B0000029FF150026FF00950675088100C04141
:1003C000542B424C45484944434F4E54524F4C4B9A
:1003D00045593D3078253034780041542B424C4506
:1003E0004B4559424F415244434F44453D253032DD
:1003F000782D30302D253032782D253032782D254E
:100400003032782D253032782D253032782D253038
:1004100032780041542B4857564241540041542BE6
:10042000474150474554434F4E4E0041542B45568B
:10043000454E54454E41424C453D30783200415482
:100440002B4556454E54454E41424C453D30783142
:10045000004F4B004154453D300041542B47415023
:100460004445564E414D453D416C70616361426F5C
:10047000617264204B61696C68204C502054726139
:1004800076656C20426F61726420776974682042DF
:100490004C4520537570706F72740041542B424C60
:1004A00045484944454E3D310041542B4741504950
:1004B0004E54455256414C533D31302C33302C2C48
:1004C0000041545A0041542B424C45504F5745521D
:1004D0004C4556454C3D2D3132005404A9045A0474
:1004E0009B04C504C104F82011241FBECFEFDAE03D
:1004F000DEBFCDBF04B603FE27C08091E704909114
:10050000E804A091E904B091EA048730904BA74039
:10051000B04BD1F41092E7041092E8041092E90471
:100520001092EA0414BE84B7877F84BF0FB6F89494
:10053000A8958091600088618093600010926000AF
:100540000FBEE0E0F8E3099511E0A0E0B1E0E6E7D6
:10055000F9E402C005900D92AE31B107D9F724E05D
:10056000AEE1B1E001C01D92A73EB207E1F712E093
:10057000C4E7D2E004C02197FE010E941521C337D1
:10058000D107C9F70E94EA160C94B9240C94000014
:1005900094EA9093BC009091BC0097FFFCCF90919F
:1005A000B900987F983021F0903111F081E00895E2
:1005B0008093BB0084E88093BC008091BC0087FFDF
:1005C000FCCF8091B900887F883111F0803471F7B9
:1005D00080E0089584E98093BC008091BC0084FD94
:1005E000FCCF08958093BB0084E88093BC00809189
:1005F000BC0087FFFCCF9091B900987F81E09832D2
:1006000009F480E0089580B38C7080BB81B3836F60
:1006100081BB3F98479A56985E9A27982F9A0895DB
:100620000C9482040C94830480E885BF85BF0E94EB
:100630004A040E940303E6E6F1E08EE191E01192A4
:100640001192DC0129E01D922150E9F7099621E081
:10065000E637F207A1F70C940B0629E0829FC00150
:100660001124FC01E25EFE4F20E030E040E050E06B
:1006700061E070E09081992319F09150908309C056
:10068000CB01022E02C0880F991F0A94E2F7482B73
:10069000592B2F5F3F4F31962930310559F7CA0149
:1006A0000895CF9329E0629FB001112420E030E04B
:1006B000A1E0B0E0C5E0AD01022E02C0440F551F1D
:1006C0000A94E2F748235923452B31F0FB01E20F4E
:1006D000F31FE25EFE4FC0832F5F3F4F293031058D
:1006E00051F7CF9108954F925F926F927F928F92C0
:1006F0009F92AF92BF92CF92DF92EF92FF920F93B1
:100700001F93CF930E94650406E611E0C0E08C2F92
:100710000E944E0480E58A95F1F78C2F0E942D03EC
:100720003C014FB1042E000C550B409550954427C9
:10073000550F441F5527542F44277E9904C0A0E825
:10074000EA2EF12C02C0E12CF12C7D9903C080E44B
:1007500090E002C080E090E07C9903C0A0E2B0E0AD
:1007600002C0A0E0B0E0799904C0F0E14F2E512C16
:1007700002C0412C512C789904C0E8E0AE2EB12C77
:1007800002C0A12CB12C26B1022E000C330B2095F7
:1007900030952227330F221F3327220F331F220FBA
:1007A000331F4E9904C0F2E08F2E912C02C0812C91
:1007B000912C63B1F801C080D180062E000C770B1C
:1007C000609570956627770F661F7727462B572B06
:1007D0004E295F29482B592BA42BB52BF201EA2B6C
:1007E000FB2BAE2ABF2A2A293B29822A932A8C2452
:1007F0009D24682079206C247D246C2FC6018625D9
:1008000097250E945103F801619271928F010E9415
:100810004A04CF5FC83009F07ACF0E940D0681E00C
:10082000CF911F910F91FF90EF90DF90CF90BF90ED
:10083000AF909F908F907F906F905F904F900895B2
:10084000E82FF0E0EE0FFF1FEA59FE4F8081918103
:10085000089508951F93CF93DF93C0917601CC2321
:10086000A1F0D62F182F88E00E94C802C82F81114E
:100870000AC0812F0E94F202C82F811104C08D2F5F
:100880000E94F202C82F0E94EA028C2FDF91CF91C2
:100890001F9108956FEF80E00C942A048F5F61E050
:1008A00070E001C0660F8A95EAF7609580E00C94CD
:1008B0002A046FEF81E00E942A046FEF86E00E9415
:1008C0002A046FEF80E00C942A0488E00E94C8029A
:1008D00081110CC00E94EA028091760181110EC044
:1008E00081E0809376010E94590406C080917601D0
:1008F000813021F4109276010C94C80D089580E0A7
:1009000090E008950895089581E00895089581E0A4
:1009100008950C9484040E94C80D2FE78AE196E0A4
:10092000215080409040E1F700C0000087E797E742
:1009300090930108809300080C9406150F931F9361
:10094000CF93DF938C01FC01C081D181CE010E9445
:10095000CE12BE010E941406EC01B8010E94890467
:10096000882309F452C1B801CE010E94730888237C
:1009700009F44BC1C43DFCE5DF0719F5F80182819C
:10098000882351F010927C010E94AA14909379015F
:100990008093780182E032C080917C0181110FC088
:1009A00080917801909179010E94B614883C91055C
:1009B00030F486E20E94040A86E20E94FB0A82E08A
:1009C00026C0C53D8CE5D80728F1C93D8CE5D80780
:1009D00009F4CCC008F0D1C0C53DFCE5DF0709F043
:1009E000EAC0F8018281882361F010927D010E94A3
:1009F000AA1490937B0180937A0180E20E945A0BA3
:100A000004C180917D01882309F4C4C080E20E9462
:100A1000610BFBC0C531ECE5DE0708F07DC0C230DC
:100A2000FCE5DF0708F452C0F8018281882309F44D
:100A300059C00E94D613811102C00E94BC130E94AB
:100A4000E91390E09093D9048093D804FE01E35019
:100A5000FC45E231F10530F4EA5AFF4F8091D804A9
:100A60000C9415218091D804816027C0826025C034
:100A7000846023C0806121C080621FC080641DC06B
:100A800080681BC08460886018C08E7F16C08D7F10
:100A900014C08B7F12C08F7E10C08F7D0EC08F7BE5
:100AA0000CC08F770AC08B7F877F07C087FB222708
:100AB00020F991E0922790FB87F98093D8048091E8
:100AC000D8040E94ED130E94C80D9FC0C1158CE58B
:100AD000D80779F0C130DC45A1F081E080937C013A
:100AE00080937D01C801DF91CF911F910F910C94EC
:100AF0008704F8018281882309F487C00E948B044F
:100B000084C0F8018281882309F47FC080910802A3
:100B100081608093080279C0C531DC45F1F60E94FE
:100B20008013982FF80182812091000130910101FA
:100B3000882379F09A7A81E009F480E08093770144
:100B4000911102C069E201C065E3C9010E944F141E
:100B50000AC080917701811102C069E201C065E39A
:100B6000C9010E945A140E944D134FC0F80182819E
:100B7000882309F44AC080E00AC0CA3DECE5DE07DC
:100B8000D1F5F8018281882309F43FC082E00E94F8
:100B900075173BC080917A0190917B010E94B61439
:100BA000883C910508F032CF87E20E94040A87E270
:100BB0000E94FB0A2BCFC63DDC4509F08ECFF80121
:100BC0008281811112CF80917D0181111FCF80918F
:100BD0007A0190917B010E94B614883C910508F03F
:100BE00015CF80E20E94610B88E20E94040A88E22D
:100BF0000E94FB0A0AC0CB3DDC4509F06ECFF8012C
:100C00008281882311F083E0C2CF80E0DF91CF9111
:100C10001F910F9108950C9410030C9412030C94DF
:100C200086040C940F06089528E4829FC0011124C5
:100C3000FC0129E0729FE00DF11D1124E60FF11D6A
:100C4000EE0FFF1FE65BFE4F859194910895880F8C
:100C5000991FFC01E659FD4F859194910895CF931A
:100C6000DF930E9414060E94D307EC018115904582
:100C700008F041C0C11580E4D80708F01CC1C83E87
:100C8000D10510F5C03ED10508F089C1C83AD1059B
:100C900078F4C53AD10508F09EC0C130D10509F4F9
:100CA0007EC108F435C1C430D10508F078C130C127
:100CB000CD3BD10508F49AC0C03CD10508F428C149
:100CC000CE01805C9109E9C0C11590E2D90758F4C2
:100CD000C11521E0D20708F062C1C03FD10508F478
:100CE00017C1D0655CC1C11580E3D80708F0D9C031
:100CF000CE019F70D2C0C11595E5D90708F044C058
:100D0000C11524E5D20708F0EDC0C11582E5D8076A
:100D100010F5C11591E5D90708F0D0C0CE0174E0F7
:100D2000969587957A95E1F7282F23703C2F33709D
:100D300081E090E002C0880F991F3A95E2F79C6825
:100D4000922BCF70C695C69520E2C29FE001112478
:100D5000C82BD92B24C19E01237033278C2F869555
:100D60008695C115D34508F0AEC0C1E0D0E002C001
:100D7000CC0FDD1F2A95E2F720E2829FC0011124EB
:100D8000C82BD92BDC680BC1C11529E5D20780F42B
:100D9000C11588E5D80708F0AAC0C11596E5D9079E
:100DA00008F0B6C0CF71DD27DC2FCC27D062F7C0AA
:100DB000CE01C1152AE5D20708F49EC090568115D0
:100DC000904208F0A5C08D2F8F710E944F08DD273B
:100DD000D0628F719BC0C53AD10509F49CC0C63A58
:100DE000D10509F09BC0C2E8D0E4D9C0C83AD1050A
:100DF00009F497C0C93AD10509F496C0CA3AD10599
:100E000009F495C0CB3AD10509F494C0CC3AD10588
:100E100009F493C0CB3BD10509F492C0CC3BD1057A
:100E200009F491C0CD3AD10509F490C0C03BD10579
:100E300009F48FC0CE3AD10509F48EC0CF3AD1055E
:100E400009F48DC0C13BD10509F48CC0C23BD1056A
:100E500009F48BC0C33BD10509F48AC0C43BD1055A
:100E600009F489C0C53BD10509F488C0C63BD1054A
:100E700009F487C0C73BD10509F486C0C83BD1053A
:100E800009F485C0C93BD10509F484C0CA3BD1052A
:100E900009F483C0C0E0D4E482C00E942706EC01BC
:100EA0007EC0CE019927D3FF03C0EC01D86C77C078
:100EB000EC01D06C74C0DF70D06A71C0DC2FCC271D
:100EC000C16FD06A6CC0C1E0D0E002C0CC0FDD1FA2
:100ED0002A95E2F720E2829FC0011124C82BD92B6A
:100EE000DA685DC0DC2FCC27C46FD06A58C0DC2F15
:100EF000CC27C06FD06A53C024E0969587952A9579
:100F0000E1F78F70CF70C06ED0E0D06AD82B47C0A9
:100F1000C0E0D0E044C0C1E8D0E441C0C3E8D0E4C0
:100F20003EC0C2EED4E43BC0C9EED4E438C0CAEE41
:100F3000D4E435C0C5EBD4E432C0C6EBD4E42FC052
:100F4000C3EBD4E42CC0C4EBD4E429C0C7EBD4E495
:100F500026C0CCECD4E423C0CDECD4E420C0C3E85C
:100F6000D5E41DC0CAE8D5E41AC0C2E9D5E417C06B
:100F7000C4E9D5E414C0C1E2D6E411C0C3E2D6E4AA
:100F80000EC0C4E2D6E40BC0C5E2D6E408C0C6E297
:100F9000D6E405C0C7E2D6E402C0CAE2D6E4CE0178
:100FA000DF91CF9108958238910549F1B0F48133F2
:100FB000910509F459C048F48932910509F44FC0EC
:100FC0008A32910509F455C008958533910509F4D5
:100FD00041C08933910599F00895833E910531F11F
:100FE00038F4803E910591F0823E9105A9F0089574
:100FF000863E910501F1873E910539F108952091D2
:10100000D80420FD3BC021FD39C008958091D8044B
:1010100080FF34C089E341C08091D80482FF30C092
:101020008091D80484FD2EC083EE37C08091D8040F
:1010300082FD26C0F5CF8091D80483FF25C0809122
:10104000D80484FD1FC087EE28C08091D80483FD9A
:101050001BC0F5CF8091D80485FD18C019C08091C0
:10106000D80485FD15C012C08091D80486FD12C039
:1010700013C08091D80486FD0FC00CC080EE0DC057
:1010800082EE0BC080E009C086EE07C089E205C091
:1010900085E303C08AE201C081E390E00895909166
:1010A000D80492FF0DC0282F2871283019F4877FAB
:1010B000846006C0282F2471243011F48B7F88604F
:1010C00093FF0DC0282F2871283119F4877E846181
:1010D00006C0282F2471243111F48B7E886194FD81
:1010E000877E089508950F931F93CF93FB0122816C
:1010F000211102C0C1E041C08C01C0918B01C1111E
:1011000025C086319C45B1F70E94720881E080932A
:101110008B010E94AA1490938A01809389011092F6
:101120007E011092800110927F0110928201109234
:101130008101109284011092830110928601109215
:101140008501109288011092870117C08091890152
:1011500090918A010E94B6148C32914058F6909179
:101160007E01E92FF0E0EE0FFF1FE158FE4F1183E3
:1011700000839F5F90937E01C0E08C2FCF911F91E1
:101180000F91089590939101809390010895E091BB
:101190009001F0919101309721F00190F081E02DC4
:1011A000099480E00895E0919001F09191013097C9
:1011B00021F00280F381E02D0994089520918E01A1
:1011C00030918F012817390771F090938F01809328
:1011D0008E01E0919001F0919101309721F006800D
:1011E000F781E02D0994089520918C0130918D01B3
:1011F0002817390771F090938D0180938C01E0914D
:101200009001F0919101309721F00084F185E02D5B
:101210000994089508950C940A0981E008950E94A4
:10122000A1140E9414030C9417155F926F927F9281
:101230008F929F92AF92BF92CF92DF92EF92FF92E6
:101240000F931F93CF93DF93CDB7DEB72A970FB6D7
:10125000F894DEBF0FBECDBF0E9473030E940D093C
:10126000811111C08FEF89838A831B820E94AA1487
:101270008160782F9D838C8349815A816B818D8118
:101280000E94D00956C093E9692E91E0792E00E0C2
:1012900010E088248394912C502E802F0E942004EB
:1012A0006C01F301A190B1903F01A826B926A114C9
:1012B000B10431F40F5F1F4F0830110569F7D2CF29
:1012C0008091080281FD0E94290480E090E0740171
:1012D000082E02C0EE0CFF1C0A94E2F795012E21A5
:1012E0003F21232B09F18E835F82CE20DF2081E016
:1012F000CD2809F480E088870E94AA148160782FA5
:101300009A8789874E815F8168858A850E94D00986
:10131000000F111FF801ED56FE4F80819181E826E4
:10132000F926F182E08205C001968930910579F6AF
:10133000C1CF0E94C708909192018917D9F00E94ED
:10134000C708809392012A960FB6F894DEBF0FBEAD
:10135000CDBFDF91CF911F910F91FF90EF90DF9064
:10136000CF90BF90AF909F908F907F906F905F9045
:101370000C9411062A960FB6F894DEBF0FBECDBFAF
:10138000DF91CF911F910F91FF90EF90DF90CF9061
:10139000BF90AF909F908F907F906F905F900895D7
:1013A000CF93DF93CDB7DEB72B970FB6F894DEBFA0
:1013B0000FBECDBF4F83588769877A878B87DE0141
:1013C000119686E0FD0111928A95E9F785E0FE010C
:1013D000379601900D928A95E1F749815A816B8188
:1013E0007C818D819E810E9495102B960FB6F8947A
:1013F000DEBF0FBECDBFDF91CF910895FC0180818C
:1014000091810E940D130895882309F4F3C0682F79
:101410008238C1F40E94C70881FDECC069E3809165
:101420000001909101010E944F140E944D132FEF73
:1014300080E792E0215080409040E1F700C000003A
:1014400069E319C08338F9F40E94C70880FDD2C04F
:1014500063E580910001909101010E944F140E9468
:101460004D132FEF80E792E0215080409040E1F74C
:1014700000C0000063E580910001909101010E948D
:101480005A140C944D138438C1F40E94C70882FD8D
:10149000B1C067E480910001909101010E944F1456
:1014A0000E944D132FEF80E792E021508040904042
:1014B000E1F700C0000067E4DECF8CEF860F813AD1
:1014C00038F480910001909101010E944F14D9CF0E
:1014D00080E2860F883048F4677081E001C0880F91
:1014E0006A95EAF70E948313CCCF8BE5860F833091
:1014F00070F4653A29F0663A31F083E890E005C06F
:1015000081E890E002C082E890E00C94DE0888E573
:10151000860F853108F06EC0683A61F1693A69F169
:101520006A3A71F16B3A79F16C3A81F16B3B89F16E
:101530006C3B91F16D3A99F1603BA1F16E3AA9F1E2
:101540006F3AB1F1613BB9F1623BC1F1633BC9F163
:10155000643BD1F1653BD9F1663BE1F1673BE9F1D1
:10156000683BF1F1693BF9F16A3B09F43FC080E067
:1015700090E03EC082EE90E03BC089EE90E038C043
:101580008AEE90E035C085EB90E032C086EB90E0CB
:101590002FC083EB90E02CC084EB90E029C087EB58
:1015A00090E026C08CEC90E023C08DEC90E020C051
:1015B00083E891E01DC08AE891E01AC082E991E0D9
:1015C00017C084E991E014C081E292E011C083E287
:1015D00092E00EC084E292E00BC085E292E008C087
:1015E00086E292E005C087E292E002C08AE292E0E1
:1015F0000C94F4080895882309F45BC0682F82389E
:1016000079F40E94C70881FF54C069E3809100010A
:10161000909101010E944F140E944D1369E310C084
:101620008338B1F40E94C70880FF43C063E580910E
:101630000001909101010E944F140E944D1363E537
:1016400080910001909101010E945A140C944D1355
:10165000843879F40E94C70882FF2BC067E4809128
:101660000001909101010E944F140E944D1367E404
:10167000E7CF8CEF860F813A18F380E2860F88302F
:1016800048F4677081E001C0880F6A95EAF70E940C
:101690008913DCCF8BE5860F833020F480E090E067
:1016A0000C94DE08685A653120F480E090E00C94D8
:1016B000F4080895882321F00E9483130C944D139D
:1016C0000895882321F00E9489130C944D130895E6
:1016D0008F929F92AF92BF92DF92EF92FF920F9301
:1016E0001F93CF93DF937C01D62FC72FFC01058179
:1016F00002950F70128111110E94A0130E944613CF
:10170000882379F0112369F080E28D0F883048F04A
:1017100082E00E942F130E94461391E0D82ED92612
:1017200001C0D12CBC2EB2948FE0B8228B2D90E05A
:10173000FC01E859FF4F0C9415218C2F807FCF704E
:10174000882311F0C295C07F112399F0CC2309F4AE
:1017500081C180E28D0F883010F0D11104C08C2F30
:101760000E94831303C08C2F0E9493130E944D1379
:1017700071C18D2F0E94FB0ACC2309F490C180E235
:101780008D0F883010F0D11104C08C2F0E94891366
:1017900003C08C2F0E9499130E944D1380C18C2F7F
:1017A000807FCF70803211F0C295C07FDD2319F0A9
:1017B000D130C9F022C0112371F0002341F0013073
:1017C00031F40E94B9138C2B0E94B31368C10E949C
:1017D000B9138C2BF8C0002319F0013009F45FC154
:1017E0000E94B61318C0112321F0063008F057C12B
:1017F0000EC0053008F053C10EC0112351F0002374
:1018000031F0F701858180FF25C18F7085838C2F92
:10181000DAC0011130C18C2FDCC08C2F86958695E3
:10182000837019F0813061F03AC1112321F08D2FBE
:101830009C2F937002C080E090E00E94DE083CC1C3
:10184000112321F08D2F9C2F937002C080E090E037
:101850000E94F40831C18C2F837009F04CC0111123
:1018600027C12D2F229526952770220F220F6D2F2D
:101870006F70862F90E0A0E0B0E04C015D01022E79
:1018800004C0880C991CAA1CBB1C0A94D2F7D4FF74
:1018900012C08FE090E0A0E0B0E004C0880F991F74
:1018A000AA1FBB1F2A95D2F7BC01CD016095709588
:1018B0008095909503C060E070E0CB01C695C69519
:1018C000C370C23051F080F4682979298A299B2994
:1018D000C13071F00E94E411EBC0682979298A298E
:1018E0009B290E94F611E4C00E94E411C501B401D5
:1018F0000E94D211DDC0112319F08C2F817001C01C
:101900008695882309F4D4C02D2F2295269527701B
:10191000220F220F6D2F6F70862F90E0A0E0B0E0B5
:101920004C015D01022E04C0880C991CAA1CBB1C32
:101930000A94D2F7D4FF12C08FE090E0A0E0B0E0AC
:1019400004C0880F991FAA1FBB1F2A95D2F7BC019C
:10195000CD01609570958095909503C060E070E032
:10196000CB01C695C695C370C23051F080F468298A
:1019700079298A299B29C13071F00E94A91298C047
:10198000682979298A299B290E94BB1291C00E944B
:10199000A912C501B4010E9497128AC08D2F90E050
:1019A000FC01E05EF109E531F10508F04FC0E858AF
:1019B000FF4F0C941521DF708C2F8F71112331F0A4
:1019C0000E9430128D2F0E945A0B69C00E94511242
:1019D0008D2F0E94610B63C0112341F0053008F088
:1019E0005EC08C2F8F710E94761259C0063008F0AD
:1019F00056C0F7CF112339F08C2F8F710E9430120F
:101A00004EC01123C9F38C2F8F710E94511247C011
:101A1000112329F08C2F8F710E941B1240C00E944D
:101A200016123DC0112349F0CF718C2F0E94301245
:101A300063E08C2F0E94261332C081E00E942F1396
:101A4000023068F182E00E942F1329C0112331F087
:101A5000002391F28D2F0E94040A21C0002399F2E5
:101A6000D93349F4FFEF23EF81E0F150204080406B
:101A7000E1F700C000008D2F0E94FB0A10C04C2F20
:101A80004F706D2FC7010E947F040E94431114C044
:101A90004C2F4F706D2FC7010E9413060DC098E0A8
:101AA000B91631F0B91640F086EF8B0D823020F474
:101AB0000E94C7080E941106DD20E1F00E94221357
:101AC00080FD18C0F70112820E941C130E94301280
:101AD000C7010E94860D0E941C13DF91CF911F91B8
:101AE0000F91FF90EF90DF90BF90AF909F908F90FD
:101AF0000C945112DF91CF911F910F91FF90EF90B5
:101B0000DF90BF90AF909F908F9008950F931F9399
:101B1000CF93DF93EC01988189812B813C81232B2A
:101B200031F08F3F31F481E09F3F19F403C081E031
:101B300001C080E080FD13C0CE010E949E04882376
:101B400071F0688179818A810E9418138C010E944A
:101B5000CD120E94C011B801CE010E94680BDF9126
:101B6000CF911F910F9108950E94A0130E94B0136E
:101B700080910001909101010E9465140E944D1313
:101B800080E090E00E94DE0880E090E00C94F40891
:101B90000E9490130C94B40D0E940D13E92FE2954E
:101BA000EF704E2F50E0FA013297EE30F105B0F4AD
:101BB000E357FF4F0C941521803F91F018F4803EBD
:101BC00068F40EC0843F51F40BC0803E48F0813F62
:101BD00029F406C093FB882780F9089580E00895D2
:101BE00081E00895CF93DF9300D000D01F92CDB74E
:101BF000DEB70F900F900F900F900F90DF91CF9165
:101C00000895CF93DF9300D000D000D0CDB7DEB7DA
:101C100026960FB6F894DEBF0FBECDBFDF91CF91F1
:101C200008951F93CF93DF93C091A30116E0809195
:101C3000A401C81799F0D0E01C9FF0011D9FF00D82
:101C40001124EB55FE4F4081518162817381848163
:101C500095810E94010E2196C770E9CFDF91CF9147
:101C60001F9108954091D5015091D6016091D701FF
:101C70007091D8018091D9019091DA010C94010EF4
:101C8000CF938091DA0182958F7009F05FC08091C7
:101C9000D701882309F45AC08091A301B091A4010F
:101CA0007091D501A091D6014091D8015091D901F0
:101CB00091E07F3F09F090E0692FC6E08B1709F4AF
:101CC00045C04115510521F0AF3F21F020E003C090
:101CD00021E001C0262F90E020FD35C0C89FF00113
:101CE000C99FF00D1124EB55FE4F21812A132BC003
:101CF0002081271328C02281211125C0238134810E
:101D00002417350710F421503109241B350B283CCA
:101D10003105C8F42091DA012F7020612093DA0197
:101D200026E0289FF001299FF00D1124E655FE4F73
:101D300080818F708061808385ED91E00E94860DA7
:101D4000CF910C94110E01968770B8CFCF91089562
:101D5000AF92BF92CF92DF92EF92FF920F931F93B9
:101D6000CF93DF93CDB7DEB761970FB6F894DEBFA0
:101D70000FBECDBF8C0185E0F801DE011D960190FC
:101D80000D928A95E1F7D8014C9111965C911197CB
:101D90001296EC903091D5016091D6018091D801D6
:101DA0009091D901009731F06F3F31F421E03F3F2E
:101DB00019F403C021E001C020E0B22FB170BB2EA6
:101DC00020FD60C1F801C380D480A090D701AA2073
:101DD00009F4EEC02091DA01C816D90628F0D60120
:101DE000A81BB90BCD0104C0809590958C0D9D1D4D
:101DF000FF24F394883C910580F0F12C207F09F0BA
:101E00009CC07C2DD98AC88A6E2D89890E94F20DCA
:101E100085ED91E00E94860D2DC1822F807F09F013
:101E200054C0561314C0431312C0FE2CE1100FC04F
:101E30002F7020612093DA010E94320E85ED91E02F
:101E40000E94860D8091DA01F80185835CC1CD285E
:101E500031F05F3F31F481E04F3F19F403C081E07E
:101E600001C080E080FD03C081E08E2502C080E0DB
:101E700090E0F82FF170FF2E80FF1CC08091A3012D
:101E80002091A40136E0821709F41AC190E0389F2E
:101E9000F001399FF00D1124EB55FE4F618156136F
:101EA00006C06081461303C06281E61203C001963A
:101EB0008770E9CFFE2CEE2009F425C18091DA016C
:101EC00081608093DA01F12C1EC1561309C04313BF
:101ED00007C0E11005C08091DA01F8018583A4C034
:101EE0004D875E878D859E850E94CC0D882379F174
:101EF000EE2069F12091DA01822F82958F7090E0B7
:101F0000029774F08091D5019091D60198878F83C4
:101F10001986DB86CA862C87CE0107960E94860D1D
:101F200086E0F801A5EDB1E001900D928A95E1F708
:101F30000E94400E0E94320E0DC0561771F04D8760
:101F40005E878D859E850E94CC0D81111AC0C801C7
:101F50000E94860DFF24F394D6C04313F0CFE11006
:101F6000EECF8091DA01F8018583C8010E94860DC9
:101F700086E0E5EDF1E0DF011D928A95E9F7FA2CA4
:101F8000C2C0EE2021F32091DA01822F82958F705A
:101F900090E002972CF28091D5019091D6019A831E
:101FA00089831B82DD82CC822E83CE010196B6CF3F
:101FB000C816D90628F0F601E81BF90BCF0104C0BA
:101FC000809590958C0D9D1D883C910548F0F12CD5
:101FD0007C2DD98AC88A6E2D89890E94F20D4AC04B
:101FE000FE2CEE2009F4B3CF561333C0431331C097
:101FF0002091DA0120FD24C0822F82958F70482F16
:1020000050E041155105E1F0D80115962C93159734
:102010004F30510549F08F5F982F9295907F822F16
:102020008F70892B15968C93C8010E94860D86E0CF
:10203000F801A5EDB1E001900D928A95E1F73DC060
:1020400086E0F801A5EDB1E001900D928A95E1F7E7
:102050005AC04D875E878D859E850E94CC0D81116B
:102060005FCF8091DA0181608093DA01C8010E941C
:10207000860D49C0E5EDF1E086E0DF011D928A950D
:10208000E9F71BC0EE2009F462CF4D875E878D858E
:102090009E850E94CC0DF82E882309F458CF86E047
:1020A000F801A5EDB1E001900D928A95E1F785ED7B
:1020B00091E00E94FE090E94400E0E94320E23C051
:1020C0004D875E878D859E850E940D13292F229551
:1020D0002F70223028F49F7039F0811105C00BC099
:1020E000243028F49F7049F4805E883020F0C801C5
:1020F0000E94860DBF2CFB2C06C0D80115969C9122
:10210000907F91F7F8CF8F2D61960FB6F894DEBFD0
:102110000FBECDBFDF91CF911F910F91FF90EF9038
:10212000DF90CF90BF90AF9008951F93CF93DF9330
:10213000CDB7DEB72C970FB6F894DEBF0FBECDBF7C
:102140004F83588769877A878B879C87CE0107964C
:102150000E94A80E8823D1F09F8188852A853B851F
:10216000232B31F08F3F31F481E09F3F19F403C0FE
:1021700081E001C080E080FD47C04F8158856985BE
:102180007A858B859C850E94010E3EC086E0FE010B
:102190003796DE01119601900D928A95E1F7FF8145
:1021A000E8856A857B856115710531F0EF3F31F473
:1021B00081E0FF3F19F403C081E001C080E080FDB1
:1021C00023C02091A40130E0C901019687709927AE
:1021D0004091A30150E084179507F1F1F983EA8358
:1021E0007D836C8396E0929FD001939FB00D112464
:1021F000AB55BE4FFE01319601900D929A95E1F7D5
:102200008093A4010E94110E16E08091A301909189
:10221000A401891771F1189FC00111248B559E4F9D
:102220000E94A80E882329F1E091A3011E9FF001CE
:102230001124EB55FE4F408151816281738184816D
:1022400095810E94010E8091A30190E00196877014
:1022500099278093A301D9CF0E94C80D1092A401A1
:102260001092A301E5EDF1E086E0DF011D928A9571
:10227000E9F72C960FB6F894DEBF0FBECDBFDF9105
:10228000CF911F910895EF92FF920F931F93CF93D9
:10229000DF938C01892B09F46CC0F12CEE24E394BC
:1022A000E8012196F8018491843740F4843008F0E5
:1022B00051C0813081F0823019F15BC0853709F45B
:1022C00044C0A8F19CE7980F903708F052C08F7770
:1022D0000E94FB0A41C00E5F1F4FFE01849190E2F5
:1022E000980F983050F48770FE2D01C0FF0F8A952B
:1022F000EAF78F2F0E94A31314C00E94040A2DC076
:102300000E5F1F4FFE01849190E2980F983060F4A9
:102310008770FE2D01C0FF0F8A95EAF78F2F0E946C
:10232000A9130E944D1319C00E94FB0A16C00E5F2C
:102330001F4FFE01C491CC2381F08FEC97E00197F1
:10234000F1F700C00000C150F6CF0E5F1F4FFE0135
:10235000F49003C00E94040A8E018F2D882309F493
:102360009FCFEFECF7E03197F1F700C0000081500C
:10237000F5CFDF91CF911F910F91FF90EF900895CE
:10238000089508950C94C1110E94C2116093DF0159
:102390007093E0018093E1019093E2010C94B40DFD
:1023A0000C94C4110F931F930091DF011091E00171
:1023B0002091E1013091E201602B712B822B932B54
:1023C0001F910F910C94C4110F931F930091DF0183
:1023D0001091E0012091E1013091E201602371232D
:1023E000822393231F910F910C94C4110F931F9379
:1023F0000091DF011091E0012091E1013091E201B3
:1024000060277127822793271F910F910C94C41185
:102410000C94C1110E9408126093DB017093DC01DF
:102420008093DD019093DE010C94B40D60E070E0C8
:10243000CB010C940A120F931F9341E050E060E02F
:1024400070E08A019B0104C0000F111F221F331F7F
:102450008A95D2F7C901B8011F910F910C940A1205
:102460000F931F9341E050E060E070E004C0440F20
:10247000551F661F771F8A95D2F78091DB019091D7
:10248000DC01A091DD01B091DE018A019B01082BE6
:10249000192B2A2B3B2BC901B8011F910F910C94CA
:1024A0000A120F931F9341E050E060E070E004C017
:1024B000440F551F661F771F8A95D2F74095509598
:1024C000609570958091DB019091DC01A091DD0118
:1024D000B091DE018A019B01082319232A233B23A3
:1024E000C901B8011F910F910C940A120F931F9309
:1024F00041E050E060E070E004C0440F551F661FEB
:10250000771F8A95D2F78091DB019091DC01A09131
:10251000DD01B091DE018A019B01082719272A27D6
:102520003B27C901B8011F910F910C940A120F9318
:102530001F930091DB011091DC012091DD013091AE
:10254000DE01602B712B822B932B1F910F910C942A
:102550000A120F931F930091DB011091DC0120916F
:10256000DD013091DE0160237123822393231F91CB
:102570000F910C940A120F931F930091DB0110919D
:10258000DC012091DD013091DE0160277127822777
:1025900093271F910F910C940A120895CF92DF9206
:1025A000EF92FF920F931F93CF93DF938C01C09014
:1025B000DB01D090DC01E090DD01F090DE01809144
:1025C000DF019091E001A091E101B091E201C82A00
:1025D000D92AEA2AFB2ACFE1D0E0D701C6010C2E86
:1025E00004C0B695A795979587950A94D2F780FD74
:1025F00004C0219790F780E007C0B8018C2F0E949B
:102600002F060197B1F38C2FDF91CF911F910F917E
:10261000FF90EF90DF90CF900895CF93DF93EC0180
:102620000E94CE12BE010E942F06DF91CF91089525
:10263000CB010E940D1308958091E3018595859546
:10264000859508958091E3018770089598E0899FAA
:1026500090011124262B2093E3010C943012209139
:10266000E301809582238093E301982F977069F4AA
:1026700030E0482F082E000C550B2417350729F0A1
:102680008595859585950C94511208959091E30157
:10269000977081E009F480E00895E0910001F091E5
:1026A0000101809107028083E0910001F091010116
:1026B000908180910602892B8083E0910001F09146
:1026C0000101908180910502892B80838091E40132
:1026D000882381F0E0910001F09101019081892B24
:1026E000808380910001909101010E94F213811179
:1026F0001092E40180910001909101010C94D308A3
:1027000080910702089590910702892B8093070218
:102710000895809590910702892380930702089578
:1027200010920702089590910602892B8093060269
:10273000089580959091060289238093060208955A
:1027400010920602089590910502892B809305024C
:10275000089580959091050289238093050208953C
:102760001092050208958093E40108951092E40107
:1027700008958091E40108956DEE7EEF80E090E091
:102780000E946C2460E082E090E00E945A2460E0A5
:1027900083E090E00E945A2460E084E090E00E9490
:1027A0005A2460E085E090E00C945A2480E090E0A8
:1027B0000E94542421E08D3E9E4F09F020E0822F9C
:1027C000089582E090E00C944C2483E090E00C9417
:1027D0004C2484E090E00C944C24682F84E090E03A
:1027E0000C945A24FC0131969C01205E3F4F80E0FE
:1027F000919191118F5FE217F307D1F708959C0132
:10280000FC0132969FEF80E04191461789F09F3F8F
:1028100019F4411101C0982F8F5F8E31A9F79F3FA6
:1028200039F0F901E90FF11D97FDFA9562830895DA
:1028300008959C01225E3F4FFC014281461301C076
:102840001282019682179307B9F70895262F2695CD
:10285000269526952F3169F0FC01E20FF11D677076
:1028600021E030E001C0220F6A95EAF78181282B30
:1028700021830895262F2695269526952F3171F0D0
:10288000FC01E20FF11D677021E030E001C0220F72
:102890006A95EAF720958181282321830895209164
:1028A0000C01222329F02091D80427FD0C94261432
:1028B0000C94FF1320910C01222329F02091D804BD
:1028C00027FD0C943A140C941914FC01319680964F
:1028D0001192E817F907E1F7089508950C946D1423
:1028E0000E94C80D0E94C7080E9411060C946E1425
:1028F0001F920F920FB60F9211248F939F93AF9355
:10290000BF9380910902811113C08091D4049091EA
:10291000D504A091D604B091D7044196A11DB11D54
:102920008093D4049093D504A093D604B093D70495
:10293000BF91AF919F918F910F900FBE0F901F90FD
:10294000189582E084BD93E095BD9DE797BD809387
:102950006E0008952FB7F8948091D4049091D50417
:10296000A091D604B091D7042FBF0895CF92DF92E3
:10297000EF92FF920F931F932FB7F8944091D404D6
:102980005091D5046091D6047091D7042FBF6A018D
:102990007B01EE24FF248C0120E030E0C016D1063C
:1029A000E206F30610F4415051099A01281B390B35
:1029B000C9011F910F91FF90EF90DF90CF90089584
:1029C00078941F920F920FB60F9211248F939F93BA
:1029D000AF93BF938091D4049091D504A091D60475
:1029E000B091D7040196A11DB11D8093D40490939A
:1029F000D504A093D604B093D704BF91AF919F9113
:102A00008F910F900FBE0F901F90189587E797E753
:102A100090930108809300089AE088E10FB6F8943B
:102A2000A895809360000FBE90936000FFCF0E9436
:102A3000D613811102C00E94BC130E94E11380933F
:102A400008020E94E91390E09093D9048093D8047F
:102A50000E94E513682F70E080E090E00C94D011A4
:102A600080912A0208950895EF92FF921F93CF93C9
:102A7000DF9300D01F92CDB7DEB77C010E9487178D
:102A8000182F8DEF810F823040F460E070E0C701B5
:102A90000E94CC20143019F026C0123021F583E0BA
:102AA0008983FB82EA8282E08093E9008FEF909134
:102AB000E800815095FD06C09AE69A95F1F700C0AE
:102AC0008111F5CF8091E80085FF0DC040E050E016
:102AD00063E070E0CE0101960E948E178091E800BD
:102AE0008E778093E8000F900F900F90DF91CF9139
:102AF0001F91FF90EF900895CF93DF9300D01F9226
:102B0000CDB7DEB72091DE04243029F522E02983F9
:102B1000805891099B838A832093E9008FEF9091DD
:102B2000E800815095FD06C09AE69A95F1F700C03D
:102B30008111F5CF8091E80085FF0DC040E050E0A5
:102B400063E070E0CE0101960E948E178091E8004C
:102B50008E778093E8000F900F900F90DF91CF91C8
:102B600008951F93CF93DF93EC010E948717182FCE
:102B70008DEF810F823050F44EE1BE016E5F7F4FCA
:102B800088810E946420143021F04AC0123009F07C
:102B900047C080910C018823E1F08091D80487FF21
:102BA00018C083E08093E9008FEF9091E800815096
:102BB00095FD06C09AE09A95F1F700C08111F5CF16
:102BC0008091E80085FF2CC040E050E060E270E0BA
:102BD00017C081E08093E9008FEF9091E800815069
:102BE00095FD06C09AE69A95F1F700C08111F5CFE0
:102BF0008091E80085FF14C040E050E068E070E09C
:102C0000CE010E948E178091E8008E778093E800B5
:102C100080E2FE01AAE0B2E001900D928A95E1F710
:102C2000DF91CF911F9108958091DD04811109C03A
:102C30000E941F190E947C198091E2008460809399
:102C4000E20008951092DD040895089508950C940B
:102C5000701442E061EC81E00E94981842E061EC5F
:102C600082E00E94981842E261EC83E00C9498188C
:102C70008091E004833009F455C030F4813071F064
:102C8000823009F48EC008958A3009F47AC08B30FE
:102C900009F460C0893009F09CC020C08091DF0435
:102CA000813A09F096C08091E800877F8093E80020
:102CB0008091E3049091E404892B21F460E28AE09E
:102CC00092E003C060E080E090E070E00E94D917DD
:102CD0008091E8008B778093E80008958091DF046D
:102CE000813209F076C08091E3049091E40400976A
:102CF00019F0029709F06DC08091E800877F8093FA
:102D0000E8008091E80082FD05C08091DE04811119
:102D1000F8CF5FC08091F10080932A028091E80093
:102D20008B7753C08091DF04813A09F052C08091C3
:102D3000E3049091E404892B09F04BC08091E800F2
:102D4000877F8093E8008091E80080FFFCCF80912E
:102D50000C0136C08091DF048132D9F58091E30403
:102D60009091E404892BA9F58091E800877F8093F6
:102D7000E8000E94CD188091E10480930C010C942E
:102D8000C80D8091DF04813221F58091E800877FB2
:102D90008093E8000E94CD188091E20480932B027A
:102DA00008958091DF04813AA1F48091E800877F43
:102DB0008093E8008091E80080FFFCCF80912B0297
:102DC0008093F1008091E8008E778093E8000C9466
:102DD000CD18089584B7877F84BF0FB6F894A8955F
:102DE00080916000886180936000109260000FBE47
:102DF00080E880936100109261000E940B090E949C
:102E00001F190E947C198091E20084608093E20087
:102E100078940E940E1C0E940F0982E091E00E94AB
:102E2000C2080E9415090E94CF1FFBCF0C941817EF
:102E3000292F332723303105C9F060F421303105C3
:102E400081F02230310509F047C084E590E02AEA9C
:102E500032E046C02132310511F12232310561F1F3
:102E60003BC082E190E02EEF32E03AC099278130FA
:102E7000910561F040F08230910559F0039761F5BA
:102E8000EAE6F2E008C0E6EAF2E005C0EAE8F2E0CD
:102E900002C0E0E7F2E0849190E09F0121C063303E
:102EA0007105D0F4660F771FFB01E95EFE4F2081AC
:102EB000318189E090E014C06330710568F4FB0152
:102EC000EE0FFF1FEF5EFE4F20813181FB01E25FBD
:102ED000FE4F808190E004C080E090E020E030E090
:102EE000FA013183208308950895CF93C82F0E945B
:102EF0007417C0930D01CF9108958091DE04843042
:102F000021F00E94611F83E0089582E0089580917E
:102F10000D01811102C00C947D170895CF92DF92AC
:102F2000EF92FF920F931F93CF93DF93EC018B01EE
:102F30007A010E94EC18811133C0E114F10439F0D8
:102F4000F70180819181081B190BC80FD91FC12C73
:102F5000D12C0115110519F18091E80085FD16C0ED
:102F60008091E8008E778093E800E114F10449F045
:102F7000F70180819181C80ED91ED182C08285E07F
:102F80000FC00E94EC18882321F30AC08991809316
:102F9000F10001501109FFEFCF1ADF0ADACF80E00C
:102FA000DF91CF911F910F91FF90EF90DF90CF9025
:102FB00008952091E5043091E6042617370748F07C
:102FC0006115710539F42091E8002E772093E8000F
:102FD00001C0B901FC0120E06115710579F1809112
:102FE000DE048823F1F18530F1F18091E80083FD62
:102FF0003CC08091E80082FD2EC08091E80080FFF7
:10300000EBCF2091F3008091F20090E0922B6115BC
:10301000710551F08830910538F421912093F10029
:10302000615071090196F3CF21E0089709F020E083
:103030008091E8008E778093E800CECF2111CFCF2A
:103040000AC08091DE04882361F0853061F08091B0
:10305000E80083FD0AC08091E80082FFF2CF80E0A3
:10306000089582E0089583E0089581E00895209115
:10307000E5043091E6042617370748F0611571051D
:1030800039F42091E8002E772093E80001C0B901BF
:10309000FC0120E06115710591F18091DE04882327
:1030A00009F440C0853009F43FC08091E80083FDF9
:1030B0003DC08091E80082FD2FC08091E80080FF34
:1030C000E9CF2091F3008091F20090E0922B6115FE
:1030D000710559F08830910540F424912093F10056
:1030E0003196615071090196F2CF21E0089709F0FD
:1030F00020E08091E8008E778093E800CBCF21110B
:10310000CCCF0AC08091DE04882361F0853061F065
:103110008091E80083FD0AC08091E80082FFF2CF31
:1031200080E0089582E0089583E0089581E00895A5
:10313000982F973068F59093E900981739F07091BF
:10314000EC002091ED005091F00003C0242F762F69
:1031500050E021FD02C09F5FECCF3091EB003E7F3D
:103160003093EB003091ED003D7F3093ED003091D6
:10317000EB0031603093EB007093EC002093ED0096
:103180005093F0002091EE0027FDE5CF80E00895F8
:103190008F708093E90081E008958091DF0487FFBC
:1031A00011C08091E80082FD05C08091DE0481118C
:1031B000F8CF11C08091E8008B770BC08091DE04BE
:1031C000882349F08091E80080FFF8CF8091E800E3
:1031D0008E778093E80008952091E4003091E50017
:1031E00095E64091EC00842F817040FF23C08091D0
:1031F000E80080FD1DC08091DE04882399F08530B1
:1032000099F08091EB0085FD11C04091E400509150
:10321000E5002417350729F3915011F09A01E1CF09
:1032200084E0089582E0089583E0089581E00895A0
:1032300080E008954091E80042FFDDCF08950E94AC
:103240008D190E949519E0EEF0E080818160808305
:10325000E8EDF0E080818F77808319BCA7EDB0E0C6
:103260008C918E7F8C9380818F7E80831092DD0481
:1032700008950F931F93CF93DF930E948D190E949F
:103280009519C8EDD0E088818F7788838881806820
:10329000888388818F7D888319BC1092DE04109208
:1032A000DA041092DC041092DB0400EE10E0F80166
:1032B00080818B7F808388818160888342E060E0A9
:1032C00080E00E949818E1EEF0E080818E7F80839C
:1032D000E2EEF0E08081816080838081886080837D
:1032E000F80180818E7F8083888180618883DF916F
:1032F000CF911F910F910895E8EDF0E080818F7ECE
:103300008083E7EDF0E080818160808384E082BF8C
:1033100081E08093DD040C943919E8EDF0E08081C0
:103320008E7F80831092E20008951092DA0010924E
:10333000E10008951F920F920FB60F9211242F9360
:103340003F934F935F936F937F938F939F93AF932D
:10335000BF93EF93FF938091E10082FF0BC08091B8
:10336000E20082FF07C08091E1008B7F8093E10043
:103370000E940D1C8091DA0080FF1DC08091D80052
:1033800080FF19C08091DA008E7F8093DA008091EF
:10339000D90019BC80FF0BC082E089BD09B400FED2
:1033A000FDCF81E08093DE040E94141604C01092C9
:1033B000DE040E9422168091E10080FF19C08091F6
:1033C000E20080FF15C08091E2008E7F8093E200D2
:1033D0008091E20080618093E2008091D800806259
:1033E0008093D80019BC85E08093DE040E942616E5
:1033F0008091E10084FF2FC08091E20084FF2BC008
:1034000019BC82E089BD09B400FEFDCF8091D800CF
:103410008F7D8093D8008091E1008F7E8093E100C2
:103420008091E2008F7E8093E2008091E2008160D3
:103430008093E2008091DA04882311F084E007C0D1
:103440008091E30087FD02C081E001C083E08093AA
:10345000DE040E9427168091E10083FF29C080913D
:10346000E20083FF25C08091E100877F8093E10027
:1034700082E08093DE041092DA048091E1008E7F76
:103480008093E1008091E2008E7F8093E200809142
:10349000E20080618093E20042E060E080E00E9410
:1034A00098188091F00088608093F0000E942516A3
:1034B000FF91EF91BF91AF919F918F917F916F910C
:1034C0005F914F913F912F910F900FBE0F901F90E2
:1034D00018951F920F920FB60F9211242F933F93BE
:1034E0004F935F936F937F938F939F93AF93BF930C
:1034F000CF93DF93EF93FF93C091E900CF7080915A
:10350000EC00D82FD17080FDD0E81092E9008091B6
:10351000F000877F8093F00078940E94AD1A10929B
:10352000E9008091F00088608093F000CD2BCF708F
:10353000C093E900FF91EF91DF91CF91BF91AF91DF
:103540009F918F917F916F915F914F913F912F91BB
:103550000F900FBE0F901F9018951F93CF93DF937E
:10356000CDB7DEB7AA970FB6F894DEBF0FBECDBFBA
:10357000EFEDF4E08091F100819324E0E73EF20763
:10358000C9F70E9438168091E80083FF2EC1809110
:10359000DF049091E004492F50E04A30510508F0D3
:1035A00024C1FA01E556FF4F0C941521803821F013
:1035B000823809F01AC108C08091DB049091DC04C4
:1035C000992389F082600FC08091E3048F70873067
:1035D00008F00BC18093E9008091EB0085FB882700
:1035E00080F91092E9009091E800977F9093E800AD
:1035F0008093F1001092F100D1C0282F2D7F09F0A7
:10360000F4C0882319F0823061F0EFC08091E104AA
:10361000813009F0EAC0933009F080E08093DC0447
:103620002EC08091E10481112AC08091E3048F7043
:103630002FEF280F263008F0D8C08093E9002091A2
:10364000EB0020FF1CC0933021F48091EB008062DE
:1036500014C09091EB0090619093EB0021E030E07A
:10366000A90102C0440F551F8A95E2F74093EA0072
:103670001092EA008091EB0088608093EB0010923A
:10368000E9008091E800877F8093E8000E94CD18D0
:10369000ACC08111AAC01091E1041F778091E300B2
:1036A0008078812B8093E3008091E800877F80936E
:1036B000E8000E94CD188091E80080FFFCCF809147
:1036C000E30080688093E300111102C082E001C032
:1036D00083E08093DE0489C08058823008F085C082
:1036E0008091E1049091E2048C3D53E0950779F5D7
:1036F00083E08A838AE289834FB7F894DE011396C8
:1037000020E03EE051E2E32FF0E050935700E491D7
:1037100020FF03C0E295EF703F5FEF708E2F90E0C7
:10372000EA3010F0C79601C0C0968D939D932F5F2D
:10373000243149F74FBF8091E800877F8093E800EC
:103740006AE270E0CE0101960E94D91716C060911E
:10375000E3047091E404AE014F5F5F4F0E941617BF
:10376000BC01892B09F441C09091E800977F9093A8
:10377000E80089819A810E9437188091E8008B7750
:103780008093E80032C0803881F58091E800877F1F
:103790008093E8008091DA048093F1008091E80042
:1037A0008E7772CF811121C08091E1049091E20463
:1037B00099270297D4F48091E800877F8093E800EE
:1037C0008091E1048093DA040E94CD188091DA049C
:1037D000811106C08091E30087FD02C081E001C035
:1037E00084E08093DE040E9429168091E80083FF24
:1037F0000AC08091E800877F8093E8008091EB0009
:1038000080628093EB00AA960FB6F894DEBF0FBEDD
:10381000CDBFDF91CF911F9108950895CF938091EF
:10382000DE048823A1F0C091E900CF709091EC00F4
:10383000892F817090FD80E8C82B1092E90080915B
:10384000E80083FD0E94AD1ACF70C093E900CF91CC
:1038500008951F920F920FB60F9211242F933F934A
:103860004F938F939F93EF93FF9380912D0290E05E
:103870009C012F5F3F4F40912C02421741F0309145
:10388000CE00FC01E25DFD4F308320932D02FF91BD
:10389000EF919F918F914F913F912F910F900FBE7C
:1038A0000F901F901895662371F0FC019C01260F64
:1038B000311DE217F30738F41EBC0DB407FEFDCF2F
:1038C0008EB58193F6CF0895EF92FF920F931F93D9
:1038D000CF93DF93EC017B010E94AA148C016699BF
:1038E0000CC082E08A95F1F700C0C8010E94B614AE
:1038F0008E159F05A0F380E030C080912E038CBD13
:1039000080912F038DBD2C981EBC00000DB407FEC6
:10391000FDCF8EB588838E5F823070F42C9A82E45E
:103920008A95F1F700C02C98C8010E94B6148E1534
:103930009F0550F380E010C063E0CE0101960E9425
:10394000531C6B816F77862F90E0419724F4CE0152
:1039500004960E94531C81E02C9ADF91CF911F9115
:103960000F91FF90EF900895EF92FF920F931F93A6
:10397000CF93DF93EC018B0180912E038CBD80915E
:103980002F038DBD2C980E94AA147C0188818EBDC6
:1039900000000DB407FEFDCF8EB58E3FB9F42C9A12
:1039A00022E42A95F1F700C02C98C7010E94B614B2
:1039B0008017910758F380E001C081E02C9ADF91D5
:1039C000CF911F910F91FF90EF900895FE013196D6
:1039D0008B818F778D5F9F01280F311DC901E817FB
:1039E000F90758F721912EBD0DB407FEFDCFF7CF93
:1039F0001F93CF93DF93CDB7DEB764970FB6F894DC
:103A0000DEBF0FBECDBFE091350390913403E917BF
:103A100009F43FC0182F669B21C066E970E0CE0113
:103A200001960E94641C8823A1F18C8187FD0DC042
:103A30002091350380913403281759F130E02F5F2E
:103A40003F4F2170332720933503112311F19091BB
:103A500035038091340398131AC01BC0F0E0EE0FB9
:103A6000FF1FE05DFC4F808191810E94B6148D3272
:103A7000914078F08091350390913403891749F093
:103A800090E00196817099278093350302C0669972
:103A9000C4CF64960FB6F894DEBF0FBECDBFDF91E2
:103AA000CF911F9108956F927F928F929F92AF92C4
:103AB000BF92CF92DF92EF92FF920F931F93CF931B
:103AC000DF93CDB7DEB7A8970FB6F894DEBF0FBE71
:103AD000CDBF7C018B016A014901FC0101900020EE
:103AE000E9F7CF0101975C01672B61F090913403F6
:103AF00080913503981721F081E00E94F81CF6CFE1
:103B0000F801108240E1742E5AE0652EA5014E198D
:103B10005F09888D41315105DCF07D8A1E8A6F8AEC
:103B2000807880618068888FF701DE015996872D43
:103B300001900D928A95E1F7B401CE0145960E945D
:103B4000B41C882309F464C0F0E1EF0EF11CDECF51
:103B500080E18D8B1E8A8AE08F8B842F8F77888FF0
:103B60005527B701CE0149960E946F21B401CE01BD
:103B700045960E94B41CF82E882309F449C001150B
:103B80001105E1F40E94AA148C018091340390E0A5
:103B90009C012F5F3F4F217033274091350342171F
:103BA00009F45AC0880F991FFC01E05DFC4F118396
:103BB0000083209334030E94AA1452C05801AC0C15
:103BC000BD1C78016CE271E0CE0101960E94641C7C
:103BD0008823F1F08981803219F0F801108218C031
:103BE0008C818F77CA2CCE188C1508F4C82ECC2067
:103BF00051F0D12CA601BE016B5F7F4FC7010E941F
:103C00006F21EC0CFD1C8C8187FDDCCFF70106C019
:103C1000F12C26C07F0180818A3039F41082F701AF
:103C200031970E171F07B0F302C08D30B9F36AE069
:103C300070E0C8010E947821009719F08C010F5F95
:103C40001F4F61E574E0C8010E94562121E0892BD5
:103C500009F020E0F22E04C080E00E94F81C95CF0D
:103C60008F2DA8960FB6F894DEBF0FBECDBFDF91A3
:103C7000CF911F910F91FF90EF90DF90CF90BF9069
:103C8000AF909F908F907F906F9008958F929F92AA
:103C9000AF92BF92CF92DF92EF92FF920F931F935A
:103CA000CF93DF93CDB7DEB77C015B014A01CDB680
:103CB000DEB60E94662101962DB73EB7281B390B50
:103CC0000FB6F8943EBF0FBE2DBF0DB71EB70F5FE6
:103CD0001F4FB701C8010E945F2126E930E0A4010F
:103CE000B501C8010E94531D0FB6F894DEBE0FBE89
:103CF000CDBEDF91CF911F910F91FF90EF90DF909C
:103D0000CF90BF90AF909F908F9008959F92AF9269
:103D1000BF92CF92DF92EF92FF920F931F93CF93B8
:103D2000DF93CDB7DEB7CA57D1090FB6F894DEBF1F
:103D30000FBECDBF8C019091340380913503981351
:103D40009AC09091C7048091C604981709F493C053
:103D50008AE0899F900111242A5C3C4FF901DE0121
:103D6000AF58BF4F01900D928A95E1F7F901F080AD
:103D7000D580C680B780A08491840E94AA149093B5
:103D8000D3048093D204FF2011F1F1E0FF1258C058
:103D90006FEB73E09E012F5F3F4F7901C9010E94D5
:103DA0005F21E6968FADE6978F93E5968FADE59709
:103DB0008F93FF92EF921F9280E38F937E0131E405
:103DC000E30EF11CFF92EF920E948B212AC06AED54
:103DD00073E09E012F5F3F4F7901C9010E945F216F
:103DE0001F929F921F92AF921F92BF921F92CF92EB
:103DF0001F92DF92E6968FADE6971F928F93E5961E
:103E00008FADE5971F928F93FF92EF921F9280E301
:103E10008F937E0131E4E30EF11CFF92EF920E943A
:103E20008B21980140E050E060E070E0C7010E9403
:103E3000531D0FB6F894DEBF0FBECDBF882379F0B7
:103E40008091C7049091C6048917A9F090E001966B
:103E500068E270E00E9401218093C7040CC0FFE774
:103E600029EA33E0F15020403040E1F700C0000083
:103E700081E00E94F81CC658DF4F0FB6F894DEBFF1
:103E80000FBECDBFDF91CF911F910F91FF90EF90AB
:103E9000DF90CF90BF90AF909F90089520E5FC01F8
:103EA000208321E021839FB7F894289A209A8CB52B
:103EB00080618CBD8CB580648CBD219A229A9FBF95
:103EC00008958091C80408950F931F93CF93DF93B3
:103ED000CDB7DEB7C258D1090FB6F894DEBF0FBE1A
:103EE000CDBF8091C904811122C01092CA041092E2
:103EF000C8046E987698249A2C9A8EE293E00E94D9
:103F00004E1F549A5C9A5C988FE19EE40197F1F7FA
:103F100000C000005C9A9FEF29E688E191502040A4
:103F20008040E1F700C0000081E08093C904109256
:103F3000CA040AED14E042E050E0B801CE018F5708
:103F40009F4F0E944D2140E850E0BE016F5F7F4FC0
:103F5000CF57DF4F88819981C158D0400E94461EBB
:103F6000882379F00E5F1F4F94E0063E190719F77A
:103F700081E08093CA040E94AA149093D304809392
:103F8000D2048091CA04CE57DF4F0FB6F894DEBF3B
:103F90000FBECDBFDF91CF911F910F910895CF93A9
:103FA000DF93CDB7DEB7E0970FB6F894DEBF0FBE54
:103FB000CDBF8091CA04811105C00E94641F88236F
:103FC00009F479C081E00E94F81C8AE090E00E9428
:103FD000861E8091D2049091D3040E94B614893E2B
:103FE0009340C8F18091CB04811117C040E350E0A9
:103FF000BE016F5F7F4F8EE394E00E94461E8823D0
:1040000049F040E350E0BE016F5F7F4F8BE294E0E8
:104010000E94461E81E08093CB040E94AA149093D4
:10402000D3048093D20440E350E0BE016F5F7F4F22
:104030008DE194E00E94461E882369F0CE0101962E
:104040000E942F2121E0892B09F420E08091C804EF
:1040500082132093C8048091CC049091CD040E94D7
:10406000B6148131974238F1909134038091350331
:10407000981321C00E94AA149093CD048093CC047D
:1040800040E350E0BE016F5F7F4F83E194E00E9408
:10409000461E882381F0CE0101960E942F21092E11
:1040A000000CAA0BBB0B8093CE049093CF04A0937B
:1040B000D004B093D104E0960FB6F894DEBF0FBEE3
:1040C000CDBFDF91CF9108957F928F929F92AF9253
:1040D000BF92CF92DF92EF92FF920F931F93CF93F5
:1040E000DF93A82EEB01142F0E94AA147C0188E212
:1040F000C82ED12C9AE0992E112381F0898012309C
:1041000010F00A8101C000E0133050F07B801430C1
:1041100040F0BC80153030F04D8105C0812C00E0AE
:10412000712CB12C40E02091C60430E0C901019609
:10413000B6010E9401219091C7049817C9F0988197
:10414000929EF001939EF00D1124EA5CFC4F1082C8
:10415000F282E182A3829483858206837782B0868D
:1041600041878093C604173040F016502696C4CF7E
:1041700086E990E00E94861EBFCF81E0DF91CF915B
:104180001F910F91FF90EF90DF90CF90BF90AF9075
:104190009F908F907F9008950F931F93CF93DF93FD
:1041A000EC0108E210E02091C60430E0C90101965C
:1041B000B8010E9401219091C704981305C086E9B7
:1041C00090E00E94861EEFCF9AE0929FF001939FAD
:1041D000F00D1124EA5CFC4F91E09083D483C383FB
:1041E0008093C60481E0DF91CF911F910F910895D4
:1041F0001092C6041092C704E0E3F3E01482158223
:10420000089597FB072E16F4009407D077FD09D088
:104210000E941B2107FC05D03EF4909581959F4F8D
:104220000895709561957F4F0895EE0FFF1F0590DB
:10423000F491E02D0994AA1BBB1B51E107C0AA1FF2
:10424000BB1FA617B70710F0A61BB70B881F991F37
:104250005A95A9F780959095BC01CD010895FC0170
:1042600088279927E89421912032E9F3293010F02A
:104270002E30C8F32B3241F02D3239F4689404C04B
:104280000E948321820F911D219120532A30C0F377
:104290001EF4909581959F4F0895FB01DC0102C0AB
:1042A00005900D9241505040D8F70895FB01DC0174
:1042B0008D91059080190110D9F3990B0895FB0198
:1042C000DC0105900D920020E1F70895FC010590B6
:1042D0000020E9F7809590958E0F9F1F0895FB01B0
:1042E000DC0102C001900D9241505040D8F7089572
:1042F000FC0181E090E00190061609F4CF01002056
:10430000D1F7019708957AE0979F902D879F802D90
:10431000910D11240895AEE0B0E0E1E9F1E20C94D2
:1043200090240D891E898F89988D26E02C831A830D
:10433000098397FF02C080E090E801979E838D83F8
:10434000AE01455E5F4F698D7A8DCE0101960E9468
:10435000BB214D815E8157FD0AC02F8138854217F0
:1043600053070CF49A01F801E20FF31F10822E9606
:10437000E4E00C94AC24ABE0B0E0E1ECF1E20C94AE
:1043800082246C017B018A01FC01178216828381E1
:1043900081FFCCC1CE0101963C01F6019381F7016A
:1043A00093FD859193FF81917F01882309F4BAC120
:1043B000853239F493FD859193FF81917F01853298
:1043C00029F4B60190E00E94B223E7CF912C212C72
:1043D000312CFFE1F315D8F08B3279F038F48032CC
:1043E00079F08332A1F4232D20611DC08D3261F05C
:1043F000803369F4232D216016C0832D8260382E0E
:10440000E32DE4603E2E2AC0F32DF8601DC037FC7A
:104410002DC020ED280F2A3040F08E32B9F436FC42
:1044200081C1232D2064322E19C036FE06C08AE0D9
:10443000989E200D1124922E11C0EAE02E9E200D90
:104440001124222EF32DF0623F2E08C08C3621F469
:10445000832D8068382E02C0883641F4F70193FD21
:10446000859193FF81917F018111B3CF982F9F7D1B
:104470009554933028F40C5F1F4F9FE399830DC030
:10448000833631F0833771F0833509F059C021C08C
:10449000F801808189830E5F1F4F88248394912CBB
:1044A000530113C02801F2E04F0E511CF801A08007
:1044B000B18036FE03C0692D70E002C06FEF7FEF60
:1044C000C5010E94A7234C018201F32DFF773F2EE7
:1044D00016C0280122E0420E511CF801A080B180D4
:1044E00036FE03C0692D70E002C06FEF7FEFC5019B
:1044F0000E949C234C01F32DF0683F2E820133FC77
:104500001BC0822D90E088169906B0F4B60180E2B7
:1045100090E00E94B2232A94F4CFF50137FC8591F4
:1045200037FE81915F01B60190E00E94B223211015
:104530002A9421E0821A91088114910471F7E8C04D
:10454000843611F0893641F5F80137FE07C06081E5
:104550007181828193810C5F1F4F08C060817181DE
:10456000072E000C880B990B0E5F1F4FF32DFF7663
:104570003F2E97FF09C090958095709561957F4F6C
:104580008F4F9F4FF0683F2E2AE030E0A3010E943A
:10459000EE23882E861845C0853731F4232D2F7ED3
:1045A000B22E2AE030E025C0932D997FB92E8F36A8
:1045B000C1F018F4883579F0B5C0803719F0883724
:1045C00021F0B0C0E92FE061BE2EB4FE0DC0FB2D7E
:1045D000F460BF2E09C034FE0AC0292F2660B22E17
:1045E00006C028E030E005C020E130E002C020E154
:1045F00032E0F801B7FE07C060817181828193814A
:104600000C5F1F4F06C06081718180E090E00E5FFB
:104610001F4FA3010E94EE23882E8618FB2DFF77E3
:104620003F2E36FE0DC0232D2E7FA22E891458F466
:1046300034FE0BC032FC09C0832D8E7EA82E05C02F
:10464000B82CA32C03C0B82C01C0B92CA4FE0FC0F9
:10465000FE01E80DF11D8081803321F49A2D997EB1
:10466000A92E09C0A2FE06C0B394B39404C08A2D3B
:10467000867809F0B394A3FC11C0A0FE06C0B21462
:1046800088F4280C922C9B180EC0B21460F4B6016A
:1046900080E290E00E94B223B394F7CFB21418F4F2
:1046A0002B1802C0982C212CA4FE10C0B60180E368
:1046B00090E00E94B223A2FE17C0A1FC03C088E7CD
:1046C00090E002C088E590E0B6010CC08A2D8678A3
:1046D00059F0A1FE02C08BE201C080E2A7FC8DE28E
:1046E000B60190E00E94B223891438F4B60180E349
:1046F00090E00E94B2239A94F7CF8A94F301E80DD8
:10470000F11D8081B60190E00E94B2238110F5CFA7
:10471000222009F442CEB60180E290E00E94B2234A
:104720002A94F6CFF6018681978102C08FEF9FEF22
:104730002B96E2E10C949E24FC01059061507040A0
:104740000110D8F7809590958E0F9F1F0895FC015A
:104750006150704001900110D8F7809590958E0FB0
:104760009F1F08950F931F93CF93DF93FB01238126
:1047700021FD03C08FEF9FEF2CC022FF16C04681A2
:104780005781248135814217530744F4A081B181B8
:104790009D012F5F3F4F318320838C93268137818A
:1047A0002F5F3F4F3783268314C08B01EC01FB0141
:1047B0000084F185E02D0995892BE1F6D801169644
:1047C0008D919C911797019617969C938E931697AF
:1047D000CE01DF91CF911F910F910895FA01AA2781
:1047E000283051F1203181F1E8946F936E7F6E5F34
:1047F0007F4F8F4F9F4FAF4FB1E03ED0B4E03CD0E2
:10480000670F781F891F9A1FA11D680F791F8A1FC4
:10481000911DA11D6A0F711D811D911DA11D20D02B
:1048200009F468943F912AE0269F11243019305DE5
:104830003193DEF6CF010895462F4770405D4193D6
:10484000B3E00FD0C9F7F6CF462F4F70405D4A3323
:1048500018F0495D31FD4052419302D0A9F7EACFEB
:10486000B4E0A6959795879577956795BA95C9F71A
:1048700000976105710508959B01AC010A2E06940D
:104880005795479537952795BA95C9F7620F731FC6
:10489000841F951FA01D0895F999FECF92BD81BD7B
:1048A000F89A992780B50895A8E1B0E042E050E079
:1048B0000C947424262FF999FECF92BD81BDF89AED
:1048C000019700B4021639F01FBA20BD0FB6F89454
:1048D000FA9AF99A0FBE08950196272F0E945B2439
:1048E0000C945A24DC01CB01FC01F999FECF06C0DF
:1048F000F2BDE1BDF89A319600B40D92415050409E
:10490000B8F708952F923F924F925F926F927F92E5
:104910008F929F92AF92BF92CF92DF92EF92FF92CF
:104920000F931F93CF93DF93CDB7DEB7CA1BDB0B7B
:104930000FB6F894DEBF0FBECDBF09942A88398820
:1049400048885F846E847D848C849B84AA84B98427
:10495000C884DF80EE80FD800C811B81AA81B98133
:10496000CE0FD11D0FB6F894DEBF0FBECDBFED0147
:064970000895F894FFCF4A
:10497600E5013015B11533157C15341501044036A3
:0E498600397F0349031003BC02D502EE020084
:00000001FF
